{
  "_format": "hh3-artifact-1",
  "contractName": "TodoList",
  "sourceName": "contracts/TodoList.sol",
  "abi": [
    {
      "inputs": [
        {
          "internalType": "uint256",
          "name": "_todoId",
          "type": "uint256"
        },
        {
          "internalType": "string",
          "name": "_title",
          "type": "string"
        },
        {
          "internalType": "string",
          "name": "_description",
          "type": "string"
        }
      ],
      "name": "addToDo",
      "outputs": [],
      "stateMutability": "nonpayable",
      "type": "function"
    },
    {
      "inputs": [],
      "name": "getAllTodos",
      "outputs": [
        {
          "internalType": "uint256[]",
          "name": "",
          "type": "uint256[]"
        },
        {
          "internalType": "string[]",
          "name": "",
          "type": "string[]"
        },
        {
          "internalType": "string[]",
          "name": "",
          "type": "string[]"
        }
      ],
      "stateMutability": "view",
      "type": "function"
    },
    {
      "inputs": [
        {
          "internalType": "uint256",
          "name": "_todoId",
          "type": "uint256"
        }
      ],
      "name": "getTodoWithId",
      "outputs": [
        {
          "components": [
            {
              "internalType": "string",
              "name": "title",
              "type": "string"
            },
            {
              "internalType": "string",
              "name": "description",
              "type": "string"
            }
          ],
          "internalType": "struct TodoList.Todo",
          "name": "",
          "type": "tuple"
        }
      ],
      "stateMutability": "view",
      "type": "function"
    },
    {
      "inputs": [
        {
          "internalType": "uint256",
          "name": "_todoId",
          "type": "uint256"
        }
      ],
      "name": "removeTodo",
      "outputs": [],
      "stateMutability": "nonpayable",
      "type": "function"
    }
  ],
  "bytecode": "0x6080604052348015600e575f5ffd5b50610c5e8061001c5f395ff3fe608060405234801561000f575f5ffd5b506004361061004a575f3560e01c80633be3d7031461004e5780634a1f9deb14610063578063af4dd00314610076578063ce2bd5d51461009f575b5f5ffd5b61006161005c3660046107e6565b6100b6565b005b61006161007136600461089c565b610142565b6100896100843660046107e6565b610217565b6040516100969190610937565b60405180910390f35b6100a76103b8565b604051610096939291906109d2565b335f81815260046020908152604080832085845290915290205460ff166100f85760405162461bcd60e51b81526004016100ef90610a3e565b60405180910390fd5b6001600160a01b0381165f9081526002602090815260408083208584529091528120906101258282610794565b610132600183015f610794565b505061013d82610692565b505050565b335f81815260046020908152604080832087845290915290205460ff161561016a5750505050565b60408051808201825284815260208082018590526001600160a01b0384165f818152600383528481208054600181018255908252838220018990559081526002825283812088825290915291909120815182919081906101ca9082610b05565b50602082015160018201906101df9082610b05565b5050506001600160a01b039091165f90815260046020908152604080832096835295905293909320805460ff19166001179055505050565b6040805180820190915260608082526020820152335f81815260046020908152604080832086845290915290205460ff166102645760405162461bcd60e51b81526004016100ef90610a3e565b6001600160a01b0381165f908152600260209081526040808320868452909152808220815180830190925280548290829061029e90610a82565b80601f01602080910402602001604051908101604052809291908181526020018280546102ca90610a82565b80156103155780601f106102ec57610100808354040283529160200191610315565b820191905f5260205f20905b8154815290600101906020018083116102f857829003601f168201915b5050505050815260200160018201805461032e90610a82565b80601f016020809104026020016040519081016040528092919081815260200182805461035a90610a82565b80156103a55780601f1061037c576101008083540402835291602001916103a5565b820191905f5260205f20905b81548152906001019060200180831161038857829003601f168201915b5050509190925250919695505050505050565b335f818152600360209081526040808320805482518185028101850190935280835260609586958695919490939092909183018282801561041657602002820191905f5260205f20905b815481526020019060010190808311610402575b505050505090505f815167ffffffffffffffff811115610438576104386107fd565b60405190808252806020026020018201604052801561046b57816020015b60608152602001906001900390816104565790505b5090505f825167ffffffffffffffff811115610489576104896107fd565b6040519080825280602002602001820160405280156104bc57816020015b60608152602001906001900390816104a75790505b5090505f5b8351811015610684576001600160a01b0385165f908152600260205260408120855182908790859081106104f7576104f7610bc0565b602002602001015181526020019081526020015f206040518060400160405290815f8201805461052690610a82565b80601f016020809104026020016040519081016040528092919081815260200182805461055290610a82565b801561059d5780601f106105745761010080835404028352916020019161059d565b820191905f5260205f20905b81548152906001019060200180831161058057829003601f168201915b505050505081526020016001820180546105b690610a82565b80601f01602080910402602001604051908101604052809291908181526020018280546105e290610a82565b801561062d5780601f106106045761010080835404028352916020019161062d565b820191905f5260205f20905b81548152906001019060200180831161061057829003601f168201915b5050505050815250509050805f015184838151811061064e5761064e610bc0565b6020026020010181905250806020015183838151811061067057610670610bc0565b6020908102919091010152506001016104c1565b509196909550909350915050565b335f81815260036020526040812090919082805b82546106b490600190610be8565b81101561073357858382815481106106ce576106ce610bc0565b905f5260205f20015414806106e05750815b1561072b5760019150826106f48284610c01565b8154811061070457610704610bc0565b905f5260205f20015483828154811061071f5761071f610bc0565b5f918252602090912001555b6001016106a6565b5081548590839061074690600190610be8565b8154811061075657610756610bc0565b905f5260205f2001540361078c578180548061077457610774610c14565b600190038181905f5260205f20015f90559055600190505b949350505050565b5080546107a090610a82565b5f825580601f106107af575050565b601f0160209004905f5260205f20908101906107cb91906107ce565b50565b5b808211156107e2575f81556001016107cf565b5090565b5f602082840312156107f6575f5ffd5b5035919050565b634e487b7160e01b5f52604160045260245ffd5b5f82601f830112610820575f5ffd5b813567ffffffffffffffff81111561083a5761083a6107fd565b604051601f8201601f19908116603f0116810167ffffffffffffffff81118282101715610869576108696107fd565b604052818152838201602001851015610880575f5ffd5b816020850160208301375f918101602001919091529392505050565b5f5f5f606084860312156108ae575f5ffd5b83359250602084013567ffffffffffffffff8111156108cb575f5ffd5b6108d786828701610811565b925050604084013567ffffffffffffffff8111156108f3575f5ffd5b6108ff86828701610811565b9150509250925092565b5f81518084528060208401602086015e5f602082860101526020601f19601f83011685010191505092915050565b602081525f8251604060208401526109526060840182610909565b90506020840151601f1984830301604085015261096f8282610909565b95945050505050565b5f82825180855260208501945060208160051b830101602085015f5b838110156109c657601f198584030188526109b0838351610909565b6020988901989093509190910190600101610994565b50909695505050505050565b606080825284519082018190525f9060208601906080840190835b81811015610a0b5783518352602093840193909201916001016109ed565b50508381036020850152610a1f8187610978565b9150508281036040840152610a348185610978565b9695505050505050565b60208082526024908201527f4e6f20546f646f20466f756e6420776974682074686520676976656e20546f646040820152631bc8125160e21b606082015260800190565b600181811c90821680610a9657607f821691505b602082108103610ab457634e487b7160e01b5f52602260045260245ffd5b50919050565b601f82111561013d57805f5260205f20601f840160051c81016020851015610adf5750805b601f840160051c820191505b81811015610afe575f8155600101610aeb565b5050505050565b815167ffffffffffffffff811115610b1f57610b1f6107fd565b610b3381610b2d8454610a82565b84610aba565b6020601f821160018114610b65575f8315610b4e5750848201515b5f19600385901b1c1916600184901b178455610afe565b5f84815260208120601f198516915b82811015610b945787850151825560209485019460019092019101610b74565b5084821015610bb157868401515f19600387901b60f8161c191681555b50505050600190811b01905550565b634e487b7160e01b5f52603260045260245ffd5b634e487b7160e01b5f52601160045260245ffd5b81810381811115610bfb57610bfb610bd4565b92915050565b80820180821115610bfb57610bfb610bd4565b634e487b7160e01b5f52603160045260245ffdfea2646970667358221220cb6680dd6a4c20da7731c9de72c0de3a729580e5976ff3f8adfa4d9fd997ba0664736f6c634300081c0033",
  "linkReferences": {},
  "deployedLinkReferences": {},
  "immutableReferences": {},
  "inputSourceName": "project/contracts/TodoList.sol",
  "buildInfoId": "solc-0_8_28-b6d7d4e1d79e357526515dbf87da1459c62e8a57"
}